:020000040800F2
:100000000000012085180008810200088302000812
:10001000850200088702000889020008000000002D
:100020000000000000000000000000008B0200083B
:100030008D020008000000008F02000891020008F5
:10004000D5180008D5180008D5180008D5180008DC
:10005000D5180008D5180008D5180008D5180008CC
:10006000D5180008D5180008D5180008D5180008BC
:10007000D5180008D5180008D5180008D5180008AC
:10008000D5180008D5180008D5180008D51800089C
:10009000D5180008D5180008D5180008D51800088C
:1000A000D5180008D5180008D5180008D51800087C
:1000B000D5180008D5180008D5180008D51800086C
:1000C000D5180008D5180008D5180008D51800085C
:1000D000D5180008D5180008D5180008D51800084C
:1000E000D5180008D5180008D5180008D51800083C
:1000F000D5180008D5180008D5180008D51800082C
:10010000D51800080000000000000000D518000805
:10011000D5180008D5180008D5180008D51800080B
:10012000D5180008D5180008D5180008D5180008FB
:10013000D5180008D51800080000000000000000D5
:10014000D5180008D5180008D518000800000000D0
:10015000000000000000000000000000000000009F
:10016000D5180008D5180008D5180008D5180008BB
:10017000D5180008D5180008D5180008D5180008AB
:10018000D5180008D5180008000000000000000085
:04019000D518000876
:1001940010B5054C237833B9044B13B10448AFF3BD
:1001A40000800123237010BD0C000020000000001B
:1001B4003019000808B5034B1BB103490348AFF3DA
:1001C400008008BD00000000100000203019000865
:1001D40072B6FEE700B5A7B0282200211CA801F0E2
:1001E40078FB00211791189119911A911B915822AB
:1001F40001A801F06EFB02231C9301221F9210221E
:10020400209222934FF4004323934FF4E01324935A
:100214001CA800F051FBC0B90F23179302211891B9
:10022400002319934FF480621A921B9317A800F0CD
:100234009DFE60B9022301930023049301A800F0FA
:100244009BFF30B927B05DF804FBFFF7C1FFFFF750
:10025400BFFFFFF7BDFF08B500F0F6FAFFF7BAFFDE
:1002640001F070FA01F0BEFA20214FF0904001F045
:10027400F8F94FF4FA7000F00BFBF5E7FEE7FEE740
:10028400FEE7FEE7FEE770477047704708B500F0E9
:10029400EDFA08BD00B583B00C4B9A6942F0010237
:1002A4009A619A6902F001020092009ADA6942F0B6
:1002B4008052DA61DB6903F080530193019B0720CC
:1002C40001F0D8F903B05DF804FB00BF0010024050
:1002D400026852E8003F23F4907342E80031002999
:1002E400F6D1026802F1080353E8003F23F001034A
:1002F400083242E800310029F3D1036E012B06D005
:100304002023C0F8803000230366836670470268A8
:1003140052E8003F23F0100342E800310029F6D1EF
:10032400EEE7000010B5044683680269134342698E
:100334001343C269134301680868864A02401A439A
:100344000A602268536823F44053E1680B43536006
:10035400A269236A1A4321688B6823F43063134328
:100364008B6023687C4A93420DD07C4A93421CD014
:100374007B4A93423AD07B4A93424AD07A4A934288
:100384005AD010231FE0794B1B6B03F00303032B9C
:1003940009D8DFE803F002040664012313E0042310
:1003A40011E008230FE010230DE0704B1B6B03F4E6
:1003B4004033B3F5003F54D013D8002B53D0B3F5DA
:1003C400803F52D10423E069B0F5004F69D0082B77
:1003D40000F2B980DFE803F092A890B7ABB7B7B7E3
:1003E400AE00B3F5403F42D10223ECE75F4B1B6BF9
:1003F40003F44023B3F5002F3BD005D8DBB3B3F5AA
:10040400802F3AD10423DEE7B3F5402F37D10223FE
:10041400D9E7564B1B6B03F44013B3F5001F30D0E0
:1004240005D883B3B3F5801F2FD10423CBE7B3F5ED
:10043400401F2CD10223C6E74C4B1B6B03F4400333
:10044400B3F5000F25D005D82BB3B3F5800F24D115
:100454000423B8E7B3F5400F21D10223B3E7022305
:10046400B1E70823AFE70023ADE71023ABE7102380
:10047400A9E70823A7E70023A5E71023A3E7102390
:10048400A1E708239FE700239DE710239BE71023A0
:1004940099E7082397E7002395E7102393E71023B0
:1004A40091E7082B49D8DFE803F0051F25482248C7
:1004B4004848090000F034FE002840D06268530820
:1004C40003EB4003B3FBF2F3A3F110014FF6EF7219
:1004D400914236D89AB222F00F02C3F34203134377
:1004E4002268D36000201BE000F030FEE4E700F057
:1004F40005FDE1E71E48E1E71D4802E000F010FEBB
:1005040018B3636800EB5300B0FBF3F0A0F11002E2
:100514004FF6EF739A421AD8236880B2D86000204D
:100524000023A366E36610BD00F010FEE8E700F0C8
:10053400E5FCE5E74FF40040E3E70120F0E70020A5
:10054400EEE70120ECE70120EAE70020E8E70120DC
:10055400E6E700BFF369FFEF0038014000440040C4
:1005640000480040004C0040005000400010024091
:1005740000127A00436A13F0010F06D00268536830
:1005840023F40033816A0B435360436A13F0020F70
:1005940006D00268536823F48033C16A0B43536066
:1005A400436A13F0040F06D00268536823F48023CF
:1005B400016B0B435360436A13F0080F06D00268C3
:1005C400536823F40043416B0B435360436A13F0B5
:1005D400100F06D00268936823F48053816B0B4399
:1005E4009360436A13F0200F06D00268936823F4E3
:1005F4000053C16B0B439360436A13F0400F0AD05E
:100604000268536823F48013016C0B435360036C3A
:10061400B3F5801F0BD0436A13F0800F06D0026835
:10062400536823F40023816C0B43536070470268C2
:10063400536823F4C003416C0B435360EBE72DE98B
:10064400F84305460F4616469946DDF820802B6888
:10065400DC6937EA04040CBF01240024B44232D11B
:10066400B8F1FF3FF3D000F00DF9A0EB09004045CD
:100674002CD8B8F1000F2BD02B681A6812F0040F95
:10068400E5D0DA6912F0080F11D1DA6912F4006FBB
:10069400DDD04FF400621A622846FFF719FE2023CA
:1006A400C5F88430002385F8783003200CE0082452
:1006B4001C622846FFF70CFEC5F88440002385F829
:1006C4007830012000E00020BDE8F8830320FBE738
:1006D4000320F9E730B583B004460023C0F8843022
:1006E40000F0D0F805462268126812F0080F0FD106
:1006F40023681B6813F0040F26D12023E367C4F892
:10070400803000202066606684F8780003B030BD35
:100714006FF07E430093034600224FF400112046FD
:10072400FFF78DFF0028E3D0226852E8003F23F052
:10073400800342E800310029F6D12023E367002337
:1007440084F878300320E1E76FF07E4300932B4672
:1007540000224FF480012046FFF771FF0028CCD01F
:10076400226852E8003F23F4907342E800310029E4
:10077400F6D1226802F1080353E8003F23F0010395
:10078400083242E800310029F3D12023C4F8803034
:10079400002384F878300320B8E768B310B5044622
:1007A400C36F03B32423E3672268136823F00103B0
:1007B40013602046FFF7B6FD012813D0636ABBB966
:1007C4002268536823F4904353602268936823F0AB
:1007D4002A0393602268136843F0010313602046E0
:1007E400FFF778FF10BD80F8783001F017F8D9E7EB
:1007F4002046FFF7BFFEE3E70120704710B504462B
:100804000E4B1A784FF47A73B3FBF2F30C4A106868
:10081400B0FBF3F000F078FF68B90F2C01D9012088
:100824000AE0002221464FF0FF3000F035FF054B6F
:100834001C60002000E0012010BD00BF000000206B
:10084400080000200400002008B5074A136843F09C
:1008540010031360032000F00DFF0020FFF7CEFF0C
:10086400FFF718FD002008BD00200240034A11686C
:10087400034B1B780B441360704700BF2800002013
:1008840000000020014B1868704700BF28000020BA
:1008940038B50446FFF7F6FF0546B4F1FF3F02D032
:1008A400044B1B781C44FFF7EDFF401BA042FAD316
:1008B40038BD00BF00000020002800F0088370B598
:1008C40082B00446036813F0010F3DD0B24B5B685D
:1008D40003F00C03042B20D0AF4B5B6803F00C0334
:1008E400082B13D06368B3F5803F6AD0002B40F027
:1008F4008D8003F1804303F504331A6822F48032B7
:100904001A601A6822F480221A605FE0A24B5B68C6
:1009140003F4C033B3F5803FE4D14FF4003393FACA
:10092400A3F39D4B19684FF4003393FAA3F3B3FA7E
:1009340083F303F01F03012202FA03F30B4203D0F3
:100944006368002B00F0C582236813F0020F00F0E7
:10095400BF80914B5B6813F00C0F00F097808E4BB7
:100964005B6803F00C03082B00F08880E368002B1D
:1009740000F0EB80012292FAA2F3B3FA83F303F1BD
:10098400845303F584139B001A60FFF77BFF05462D
:10099400022393FAA3F3804B1968022393FAA3F377
:1009A400B3FA83F303F01F03012202FA03F30B42A9
:1009B40040F0BD80FFF766FF401B0228E8D9032002
:1009C40090E2754A136843F4803313606368002B24
:1009D40036D0FFF757FF05464FF4003393FAA3F3DD
:1009E4006D4B19684FF4003393FAA3F3B3FA83F30E
:1009F40003F01F03012202FA03F30B42A4D1FFF711
:100A040041FF401B6428E7D903206BE2B3F5A02F14
:100A140009D0614B1A6822F480321A601A6822F4F1
:100A240080221A60D2E703F18043A3F53C331A68AD
:100A340042F480221A601A6842F480321A60C5E7D0
:100A4400FFF720FF05464FF4003393FAA3F3524B0C
:100A540019684FF4003393FAA3F3B3FA83F303F062
:100A64001F03012202FA03F30B423FF46DAFFFF7B9
:100A740009FF401B6428E6D9032033E2464B5B6838
:100A840003F4C033B3F5004F7FF470AF022393FA3D
:100A9400A3F3414B1968022393FAA3F3B3FA83F344
:100AA40003F01F03012202FA03F30B4203D0E368AD
:100AB400934240F010823848036823F0F803216918
:100AC400F82292FAA2F2B2FA82F291400B43036046
:100AD400236813F0080F00F08B806369002B5FD04C
:100AE400012191FAA1F2B2FA82F22C4B13449B0039
:100AF4001960FFF7C7FE0546022393FAA3F293FA9F
:100B0400A3F293FAA3F2244A516A93FAA3F3B3FA31
:100B140083F303F01F03012202FA03F30B4267D1AC
:100B2400FFF7B0FE401B0228E6D90320DAE11A4899
:100B3400036823F0F8032169F82292FAA2F2B2FAC8
:100B440082F291400B430360C2E7012393FAA3F3BB
:100B5400B3FA83F303F1845303F584139B00002257
:100B64001A60FFF78FFE0546022393FAA3F30A4B9C
:100B74001968022393FAA3F3B3FA83F303F01F0370
:100B8400012202FA03F30B42A2D0FFF77BFE401BC3
:100B94000228E9D90320A5E1001002402081901029
:100BA400012292FAA2F2B2FA82F29C4B13449B0005
:100BB40000221A60FFF766FE0546022393FAA3F2A9
:100BC40093FAA3F293FAA3F2954A516A93FAA3F320
:100BD400B3FA83F303F01F03012202FA03F30B4277
:100BE40006D0FFF74FFE401B0228E6D9032079E127
:100BF400236813F0040F00F0A980894BDB6913F01C
:100C0400805F20D1864BDA6942F08052DA61DB6979
:100C140003F080530193019B0125824B1B6813F45D
:100C2400807F12D0A368012B23D073BB03F18043D0
:100C340003F504331A6A22F001021A621A6A22F0D6
:100C440004021A621AE00025E7E7764A136843F4BF
:100C540080731360FFF716FE0646724B1B6813F48D
:100C6400807FDFD1FFF70EFE801B6428F5D90320B7
:100C740038E16B4A136A43F001031362A368002B43
:100C84003CD0FFF7FFFD06462BE0052B09D0644B53
:100C94001A6A22F001021A621A6A22F004021A6223
:100CA400ECE75F4B1A6A42F004021A621A6A42F0D5
:100CB40001021A62E2E75A4B196A022393FAA3F378
:100CC400B3FA83F303F01F03012202FA03F3194278
:100CD4003BD1FFF7D7FD801B41F28833984200F2E5
:100CE400FC80022393FAA3F293FAA3F3002BE2D13C
:100CF400022393FAA3F34A4B596ADEE7FFF7C2FDD6
:100D0400064615E0464B196A022393FAA3F3B3FA95
:100D140083F303F01F03012202FA03F3194214D0F0
:100D2400FFF7B0FD801B41F28833984200F2D78070
:100D3400022393FAA3F293FAA3F3002BE2D1022342
:100D440093FAA3F3364B596ADEE7B5BBA369002BCC
:100D540000F0C780324A526802F00C02082A00F000
:100D6400A080022B2FD04FF0807393FAA3F3B3FA31
:100D740083F303F1845303F584139B0000221A6068
:100D8400FFF780FD04464FF0007393FAA3F3244B5E
:100D940019684FF0007393FAA3F3B3FA83F303F0E3
:100DA4001F03012202FA03F3194278D0FFF76AFD08
:100DB400001B0228E7D9032094E0194AD36923F0E1
:100DC4008053D361C2E74FF0807393FAA3F3B3FA6D
:100DD40083F303F1845303F584139B0000221A6008
:100DE400FFF750FD05464FF0007393FAA3F30C4B45
:100DF40019684FF0007393FAA3F3B3FA83F303F083
:100E04001F03012202FA03F319420DD0FFF73AFD42
:100E1400401B0228E7D9032064E000BF2081901022
:100E24000010024000700040334AD36A23F00F03DD
:100E3400616A0B43D362536823F47613216AE06931
:100E440001430B4353604FF0807393FAA3F3B3FA57
:100E540083F303F1845303F584139B0001221A6086
:100E6400FFF710FD04464FF0007393FAA3F3224BEF
:100E740019684FF0007393FAA3F3B3FA83F303F002
:100E84001F03012202FA03F3194206D1FFF7FAFC09
:100E9400001B0228E7D9032024E0002022E00020E0
:100EA40020E0012B20D0144A5368D06A03F4C031E7
:100EB400E26991421AD103F47013226A934217D162
:100EC40000F00F00636A984214D100200AE0012068
:100ED4007047012006E0012004E0032002E0032023
:100EE40000E0002002B070BD0120FBE70120F9E71B
:100EF4000120F7E70120F5E700100240174B5B687B
:100F040003F00C02082A01D01548704703F470114D
:100F14004FF4701292FAA2F2B2FA82F221FA02F2B9
:100F24001049885C0D4AD26A02F00F020F2191FA2F
:100F3400A1F1B1FA81F1CA400B498A5C13F4803FF4
:100F440005D0074BB3FBF2F303FB00F07047044BEF
:100F5400B3FBF2F303FB00F0704700BF0010024044
:100F640000127A004819000858190008002800F0F7
:100F7400BE8070B50D460446614B1B6803F0070341
:100F84008B420BD25E4A136823F007030B431360B2
:100F9400136803F007038B4240F0AB80236813F01F
:100FA400020F06D0574A536823F0F003A1680B439D
:100FB4005360236813F0010F5AD06368012B2DD0BE
:100FC400022B40D0022292FAA2F24E4A1068022268
:100FD40092FAA2F2B2FA82F202F01F02012101FA9D
:100FE40002F2104200F0878046494A6822F0030268
:100FF40013434B60FFF746FC0646424B5B6803F025
:101004000C036268B3EB820F32D0FFF73BFC801B0A
:1010140041F288339842F0D9032067E04FF400325C
:1010240092FAA2F2374A10684FF4003292FAA2F20E
:10103400B2FA82F202F01F02012101FA02F2024224
:10104400D2D1012052E04FF0007292FAA2F22D4A5E
:1010540010684FF0007292FAA2F2B2FA82F202F031
:101064001F02012101FA02F21042BDD101203DE02C
:10107400234B1B6803F00703AB420AD9204A1368C9
:1010840023F007032B431360136803F00703AB42F9
:1010940033D1236813F0040F06D01A4A536823F49B
:1010A400E063E1680B435360236813F0080F07D033
:1010B400144A536823F46053216943EAC10353601B
:1010C400FFF71CFF0F4B5B6803F0F003F02292FA6A
:1010D400A2F2B2FA82F2D3400B4AD35CD8400B4B53
:1010E40018600B4B1868FFF789FB002070BD0120C6
:1010F40070470120FAE70120F8E70120F6E700BF76
:101104000020024000100240681900080800002076
:1011140004000020014B1868704700BF080000203D
:1011240008B5FFF7F7FF074B5B6803F4E0634FF480
:10113400E06292FAA2F2B2FA82F2D340024AD35C9B
:10114400D84008BD001002407819000808B5FFF720
:10115400E1FF074B5B6803F460534FF4605292FA6B
:10116400A2F2B2FA82F2D340024AD35CD84008BD5C
:101174000010024078190008F0B583B004460368F3
:1011840013F4803F48D0A14BDB6913F0805F40F03B
:1011940021819E4BDA6942F08052DA61DB6903F007
:1011A40080530193019B0125994B1B6813F4807FA5
:1011B40000F01281954B1B6A13F4407322D06268CD
:1011C40002F440729A421DD09048016A21F440769C
:1011D4004FF4803393FAA3F2B2FA82F28D4F3A4479
:1011E40092004FF0010CC2F800C093FAA3F3B3FAD3
:1011F40083F33B449B0000221A60066211F0010F46
:1012040040F0FF80814A136A23F4407361680B4302
:101214001362002D40F02381236813F0010F06D0E0
:101224007A4A136B23F00303A1680B431363236807
:1012340013F0020F06D0754A136B23F44033E168B0
:101244000B431363236813F0040F06D06F4A136B28
:1012540023F4402321690B431363236813F0200F05
:1012640006D06A4A136B23F01003E1690B4313633E
:10127400236813F4003F06D0644A536823F48003C0
:10128400616D0B435360236813F0400F06D05F4A2F
:10129400136B23F02003216A0B431363236813F4B5
:1012A400802F06D0594A136B23F04003616A0B4325
:1012B4001363236813F0080F06D0544A136B23F406
:1012C400401361690B431363236813F0100F06D0B6
:1012D4004E4A136B23F44003A1690B431363236841
:1012E40013F4007F06D0494A536823F40003216BAA
:1012F4000B435360236813F0800F06D0434AD36A2C
:1013040023F4F873A16A0B43D362236813F4807F38
:1013140006D03E4AD36A23F47853E16A0B43D3627E
:10132400236813F4805F06D0384A136B23F4807368
:10133400616B0B431363236813F4005F06D0334AD5
:10134400136B23F40073216C0B431363236813F4AE
:10135400801F06D02D4A136B23F08073A16B0B43BF
:101364001363236813F4001F06D0284A136B23F079
:101374000073E16B0B431363236813F4800F06D0EF
:10138400224A136B23F48063616C0B431363236859
:1013940013F4000F06D01D4A136B23F40063A16CF1
:1013A4000B431363236813F0807F06D0174A136B33
:1013B40023F40053E16C0B431363236813F0007FA1
:1013C40054D0124A136B23F40043216D0B4313636F
:1013D40000204CE00025E7E60D4A136843F48073CF
:1013E4001360FFF74FFA0646094B1B6813F4807F1E
:1013F4007FF4E0AEFFF746FA801B6428F4D903209B
:1014040035E0FFF73FFA06461CE000BF001002403B
:101414000070004000819010164B196A022393FA61
:10142400A3F3B3FA83F303F01F03012202FA03F3D5
:101434000B427FF4E7AEFFF725FA801B41F28833B5
:10144400984211D8022393FAA3F293FAA3F3002B40
:10145400E2D1022393FAA3F3064B596ADEE7D36978
:1014640023F08053D361D7E6032000E0002003B0CB
:10147400F0BD00BF00100240F0B583B0002362E06D
:1014840085685E000324B44025EA0405CC68B440B2
:101494002C438460456825EA0C054C68C4F30014A9
:1014A4009C402C4344605FE0DD08083550F825403B
:1014B40003F0070C4FEA8C0C4FF00F0E0EFA0CFEE3
:1014C40024EA0E0E0C6904FA0CF444EA0E0440F803
:1014D400254060E0062400E0002404FA0EF42C43C6
:1014E4000CF1020C584D45F82C40584CA568D443D7
:1014F40025EA02064F6817F4801F01D042EA050668
:10150400524DAE60ED6804EA05064F6817F4001FFB
:1015140001D042EA05064D4DEE606D6804EA050609
:101524004F6817F4003F01D042EA0506474D6E604C
:101534002D682C404E6816F4803F01D042EA050421
:10154400424A146001330A6832FA03F47AD04FF045
:10155400010C0CFA03FC1CEA0202F3D04C6804F000
:101564000304013C012C8BD94C6804F00304032CC4
:101574000CD0C4685D004FF0030C0CFA05FC24EA9F
:101584000C0C8C68AC4044EA0C04C4604C6804F055
:101594000304022C88D004684FEA430E4FF0030C76
:1015A4000CFA0EFC24EA0C0C4C6804F0030404FA54
:1015B4000EF444EA0C0404604C6814F4403FC1D0B7
:1015C400234CA56945F00105A561A46904F0010453
:1015D4000194019C4FEA930C0CF102051A4C54F847
:1015E400255003F0030E4FEA8E0E0F2404FA0EF476
:1015F40025EA0405B0F1904F3FF46EAF154CA042BC
:1016040016D004F58064A04214D004F58064A0428E
:1016140012D004F58064A04210D004F58064A04286
:101624000ED004F58064A0423FF454AF072454E77D
:10163400012452E7022450E703244EE704244CE734
:1016440005244AE703B0F0BD000001400004014056
:1016540000100240000400480AB1816170478162B1
:101664007047436901EA030221EA030141EA0241A6
:1016740081617047074AD36823F4E0631B041B0CA1
:10168400000200F4E060034343F0BF6343F400331B
:10169400D360704700ED00E000B5194BDB68C3F37D
:1016A4000223C3F1070CBCF1040F28BF4FF0040C54
:1016B40003F1040EBEF1060F18D9033B4FF0FF3EB1
:1016C4000EFA0CFC21EA0C0199400EFA03FE22EA00
:1016D4000E020A4300280BDB1201D2B200F1604073
:1016E40000F5614080F800235DF804FB0023E5E782
:1016F40000F00F001201D2B2024B1A54F4E700BFFB
:1017040000ED00E014ED00E00138B0F1807F0BD271
:101714004FF0E0235861054AF02182F8231000209D
:10172400986107221A6170470120704700ED00E0BC
:10173400034AD2F8883043F47003C2F88830704703
:1017440000ED00E010B58AB00024059406940794D7
:1017540008940994214B5A6942F400225A615A6947
:1017640002F400220192019A5A6942F480025A61F9
:101774005A6902F480020292029A5A6942F40032CF
:101784005A615A6902F400320392039A5A6942F484
:1017940080225A615B6903F480230493049B2246EC
:1017A40020214FF09040FFF757FF4FF4005305936B
:1017B4004FF404130693079405A90948FFF75CFE48
:1017C40020230593012306930794089405A94FF059
:1017D4009040FFF751FE0AB010BD00BF0010024058
:1017E4000008004808B50B480B4B03604FF4164340
:1017F400436000238360C36003610C224261836100
:10180400C36103624362FEF7C8FF00B908BDFEF777
:10181400DFFCFBE72C0000200044004000B589B049
:101824000023039304930593069307930268134BD1
:101834009A4202D009B05DF804FB03F5E633DA6995
:1018440042F40032DA61DA6902F400320192019A58
:101854005A6942F400325A615B6903F4003302931B
:10186400029B0C230393022304930723079303A9E6
:101874004FF09040FFF700FEDCE700BF004400405B
:10188400DFF834D0FFF754FF0C480D490D4A00230C
:1018940002E0D458C4500433C4188C42F9D30A4A21
:1018A4000A4C002301E013600432A242FBD300F08F
:1018B40019F8FEF7D0FCFEE700000120000000202C
:1018C4000C000020881900080C000020B40000203F
:1018D400FEE702440346934200D1704703F8011B1C
:1018E400F9E7000070B50D4D0D4C641BA4100026E3
:1018F400A64209D10B4D0C4C00F018F8641BA4103F
:101904000026A64205D170BD55F8043B9847013620
:10191400EEE755F8043B98470136F2E780190008D2
:10192400801900088019000884190008F8B500BF60
:10193400F8BC08BC9E467047F8B500BFF8BC08BCAC
:041944009E46704704
:1019480002030405060708090A0B0C0D0E0F1010F8
:101958000102030405060708090A0B0C0D0E0F10F7
:101968000000000000000000010203040607080947
:0819780000000000010203045D
:04198000B9010008A1
:0419840095010008C1
:0C198800010000001000000000127A00B6
:040000050800188552
:00000001FF
